:10000000E1C70000FCC70000F9C70000F7C7000007
:10001000F5C70000F3C70000F1C70000EFC70000FC
:10002000EDC70000EBC700000C945223E7C70000A7
:10003000E5C70000E3C70000E1C70000DFC700001C
:10004000DDC70000DBC70000D9C70000D7C700002C
:10005000D5C70000D3C70000D1C70000CFC700003C
:10006000CDC70000CBC70000C9C70000C7C700004C
:10007000C5C700000C94D90AC1C70000BFC7000063
:10008000BDC70000BBC70000B9C70000B7C700006C
:10009000B5C70000B3C70000B1C70000AFC700007C
:1000A000ADC70000ABC70000A9C700002A0353007A
:1000B000690064006500770069006E0064006500F7
:1000C0007200200057006800650065006C00200089
:1000D00046004600420000003003530069006400FF
:1000E0006500770069006E00640065007200200002
:1000F0004A006F00790073007400690063006B00B0
:1001000020004600460042000000040309040902E2
:100110006600030100C03209040000020300000071
:10012000092111010001225C0507050203400001BD
:1001300007058103400001080B01020202010009CA
:100140000401000102020100052400100104240240
:10015000060524060102070585030800FF090402BD
:1001600000020A00000007050402100001070583D1
:100170000210000112011001EF020108EB035620EA
:1001800001000002000112011001EF020108EB035F
:100190004E2001000002000105010904A1018501B2
:1001A0000901A100093016000026FF03350046FFB3
:1001B00003950175108102C0050209C4150025FFD1
:1001C00045FF75089501810209C5150025FF45FF0A
:1001D00075089501810205091901290815002501F5
:1001E00045017501950881021909290975019501D3
:1001F0008102750795018101050109399501750491
:1002000015002507463B016514814275049501815F
:100210000155006500050F0992A1028502099F0999
:10022000A015002501350045017501950281029553
:1002300001810309A509A69502810295038103099D
:1002400094150025013500450175019501810209CC
:10025000221501252835014528750795018102C021
:100260000921A1028501092215012528350145280A
:100270007508950191020925A1020926092709306F
:100280000931093209330934094009410942094356
:100290000928250C15013501450C750895019100BB
:1002A000C0095009540951150026FF7F350046FF4B
:1002B0007F66031055FD7510950391025500660089
:1002C000000952150026FF003500461027750895D5
:1002D0000191020953150125083501450875089556
:1002E0000191020955A102050109300931150025C6
:1002F00001750195029102C0050F09569501910201
:10030000950591030957A1020B01000A000B020099
:100310000A0066140055FE150026B400350047A0FB
:100320008C00006600007508950291025500660079
:1003300000C0050F66031055FD150026FF7F350030
:1003400046FF7F751095016600005500C0050F0936
:100350005AA1028502092215012528350145287573
:100360000895019102095B095D150026FF00350023
:1003700046102795029102095C095E66031055FD3F
:1003800026FF7F46FF7F75109102450066000055ED
:1003900000C0095FA1028503092215012528350146
:1003A000452875089501910209231500250135009E
:1003B00045017504950191020958A1020B01000A3B
:1003C000000B02000A00750295029102C0158025FB
:1003D0007F36F0D8461027096075089501910236DE
:1003E000F0D846102709610962950291021500268E
:1003F000FF003500461027096309647508950291CE
:1004000002096546102795019102C0096EA1028577
:100410000409221501252835014528750895019103
:10042000020970150026FF00350046102775089553
:10043000019102096F1580257F36F0D84610279567
:10044000019102097166140055FE150026FF003562
:100450000047A08C00009102097226FF7F46FF7FB3
:1004600066031055FD751095019102660000550058
:10047000C00973A10285050922150125283501450A
:100480002875089501910209701601FF26FF0036B4
:10049000F0D8461027751095019102C00974A10289
:1004A000850609221501252835014528750895017D
:1004B0009102097509761580257F36F0D8461027F8
:1004C000750895029102C00968A1028507092215E5
:1004D00001252835014528750895019102096C15FB
:1004E0000026102735004610277510950191020946
:1004F000691581257F350046FF007508950C92022D
:1005000001C00966A102850805010930093115817C
:10051000257F350046FF00750895029102C0050F42
:100520000977A102850A09221501252835014528E8
:100530007508950191020978A1020979097A097B68
:1005400015012503750895019100C0097C15002649
:10055000FF00350046FF009102C00990A102850B03
:1005600009222528150135014528750895019102B4
:10057000C00996A102850C099709980999099A0959
:100580009B099C15012506750895019100C0097D00
:10059000A102850D097E150026FF003500461027B3
:1005A000750895019102C0096BA102850E092215FB
:1005B00001252835014528750895019102096D1519
:1005C0000026FF00350046FF0075089501910209DD
:1005D0005166031055FD150026FF7F350046FF7F4D
:1005E0007510950191025500660000C009ABA1028B
:1005F00085050925A1020926092709300931093293
:100600000933093409400941094209430928250CE5
:1006100015013501450C75089501B100C0050109AA
:100620003B150026FF01350046FF01750A9501B113
:10063000027506B101C0050F0989A10285060922CC
:10064000252815013501452875089501B102098B4A
:10065000A102098C098D098E250315013501450379
:1006600075089501B100C009AC150027FFFF000017
:10067000350047FFFF000075109501B100C0097FEC
:10068000A10285070980751095011500350027FF27
:10069000FF000047FFFF0000B102098326FF00466C
:1006A000FF0075089501B10209A909AA7501950213
:1006B0001500250135004501B10275069501B1030C
:1006C000C0A1020600FF09018508257F7508950174
:1006D000B10209029501B10209039501B1020904B1
:1006E0009501B102C0C005010904A10185010901FC
:1006F000A1000930093109321600FE26FF0135003C
:1007000046FF0395037510810209351500253F3515
:1007100000452E95017506810275029501810165DE
:100720000009330934150025FF45FF750875089544
:10073000028102C0050209C5150025FF45FF7508A5
:1007400095018102050209C4150025FF45FF7508C2
:100750009501810209BB15C0253F457F75089501AC
:1007600081020509190129081500250145017501B6
:100770009508810219092910750195088102050162
:1007800009399501750415002507463B016514815B
:100790004275049501810155006500050F0992A17C
:1007A000028502099F09A009A409A509A61500252B
:1007B0000135004501750195058102950381030905
:1007C0009415002501350045017501950181020947
:1007D000221501252835014528750795018102C09C
:1007E0000921A10285010922150125283501452885
:1007F0007508950191020925A102092609270930EA
:1008000009310932093309340940094109420943D0
:100810000928250C15013501450C75089501910035
:10082000C0095009540951150026FF7F350046FFC5
:100830007F66031055FD7510950391025500660003
:10084000000952150026FF0035004610277508954F
:1008500001910209531501250835014508750895D0
:100860000191020955A10205010930093115002540
:1008700001750195029102C0050F0956950191027B
:10088000950591030957A1020B01000A000B020014
:100890000A0066140055FE150026B400350047A076
:1008A0008C000066000075089502910255006600F4
:1008B00000C0050F66031055FD150026FF7F3500AB
:1008C00046FF7F751095016600005500C0050F09B1
:1008D0005AA10285020922150125283501452875EE
:1008E0000895019102095B095D150026FF0035009E
:1008F00046102795029102095C095E66031055FDBA
:1009000026FF7F46FF7F7510910245006600005567
:1009100000C0095FA10285030922150125283501C0
:100920004528750895019102092315002501350018
:1009300045017504950191020958A1020B01000AB5
:10094000000B02000A00750295029102C015802575
:100950007F36F0D846102709607508950191023658
:10096000F0D8461027096109629502910215002608
:10097000FF00350046102709630964750895029148
:1009800002096546102795019102C0096EA10285F2
:10099000040922150125283501452875089501917E
:1009A000020970150026FF003500461027750895CE
:1009B000019102096F1580257F36F0D846102795E2
:1009C000019102097166140055FE150026FF0035DD
:1009D0000047A08C00009102097226FF7F46FF7F2E
:1009E00066031055FD7510950191026600005500D3
:1009F000C00973A102850509221501252835014585
:100A00002875089501910209701601FF26FF00362E
:100A1000F0D8461027751095019102C00974A10203
:100A200085060922150125283501452875089501F7
:100A30009102097509761580257F36F0D846102772
:100A4000750895029102C00968A10285070922155F
:100A500001252835014528750895019102096C1575
:100A600000261027350046102775109501910209C0
:100A7000691581257F350046FF007508950C9202A7
:100A800001C00966A10285080501093009311581F7
:100A9000257F350046FF00750895029102C0050FBD
:100AA0000977A102850A0922150125283501452863
:100AB0007508950191020978A1020979097A097BE3
:100AC00015012503750895019100C0097C150026C4
:100AD000FF00350046FF009102C00990A102850B7E
:100AE000092225281501350145287508950191022F
:100AF000C00996A102850C099709980999099A09D4
:100B00009B099C15012506750895019100C0097D7A
:100B1000A102850D097E150026FF0035004610272D
:100B2000750895019102C0096BA102850E09221575
:100B300001252835014528750895019102096D1593
:100B40000026FF00350046FF007508950191020957
:100B50005166031055FD150026FF7F350046FF7FC7
:100B60007510950191025500660000C009ABA10205
:100B700085050925A102092609270930093109320D
:100B80000933093409400941094209430928250C60
:100B900015013501450C75089501B100C005010925
:100BA0003B150026FF01350046FF01750A9501B18E
:100BB000027506B101C0050F0989A1028506092247
:100BC000252815013501452875089501B102098BC5
:100BD000A102098C098D098E2503150135014503F4
:100BE00075089501B100C009AC150027FFFF000092
:100BF000350047FFFF000075109501B100C0097F67
:100C0000A10285070980751095011500350027FFA1
:100C1000FF000047FFFF0000B102098326FF0046E6
:100C2000FF0075089501B10209A909AA750195028D
:100C30001500250135004501B10275069501B10386
:100C4000C0C04572726F723A20756E6B6E6F776EB0
:100C500020656666656374207479706520746F2002
:100C6000656E61626C652F64697361626C650020FA
:100C700053696E65732064697361626C65640A0010
:100C800020547269616E676C657320646973616278
:100C90006C65640A0020436F6E7374616E74732018
:100CA00064697361626C65640A0020537072696ED6
:100CB00067732064697361626C65640A00456666E7
:100CC000656374733A0A004572726F723A20756EEA
:100CD0006B6E6F776E20636F6D6D616E64002C209C
:100CE000646174613D00436F6D20203D3E20436F81
:100CF0006D6D616E643D0052656365697665642063
:100D0000646174613D00457870656374696E672045
:100D100064617461206C656E3D0020203D20536548
:100D200074436F6E74726F6C4C696E65537461744A
:100D3000650020203D205365744C696E65456E63E7
:100D40006F64696E670020203D204765744C696EB2
:100D500065456E636F64696E67004374726C5265BB
:100D6000712876616C2C6964782C726571293A005F
:100D700053746F70206D616E75616C3A000A2020AB
:100D80006761696E3D000A20206661646554696D83
:100D9000653D0020206475726174696F6E3D0020AE
:100DA00028456E61626C6564290A002028446973D5
:100DB00061626C6564290A002046726565002053F3
:100DC000656E740020506C6179696E670A0020417D
:100DD0006C6C6F636174656400203D3E204D6964F6
:100DE000693A00446576696365204761696E3A2017
:100DF00000426C6F636B20467265653A2000476560
:100E0000745265706F72742050494420506F6F6C3B
:100E10002046656174757265002020627574746F78
:100E20006E3D0020207265706561743D0020205980
:100E30003D002020583D002020647572613D002057
:100E4000206761696E3D002020747970653D002047
:100E500020696420203D0053657420456666656303
:100E6000743A002C207374617475733D004372658D
:100E7000617465204E657720456666656374203D24
:100E80003E2069643D0055736220203D3E002020D5
:100E9000656E6420203D00202073746172743D00F3
:100EA000202069643D005365742052616D702046B6
:100EB0006F7263653A0020206D61676E69747564B6
:100EC000653D00202069643D0053657420436F6ECA
:100ED0007374616E7420466F7263653A00202070EF
:100EE0006572696F642020203D0020207068617366
:100EF00065202020203D0020206F666673657420E9
:100F000020203D0020206D61676E69747564653D29
:100F100000202069643D0053657420506572696F3C
:100F20006469633A002020636F6566662B3D00208C
:100F3000206F66667365743D002020626C6F636B82
:100F4000203D00202069642020203D00536574204E
:100F5000436F6E646974696F6E3A00202066616445
:100F60006554696D6520203D0020206174746163C3
:100F70006B54696D653D0020206661646520203DED
:100F800000202061747461636B3D0020206964203F
:100F90002020203D0053657420456E76656C6F708F
:100FA000653A0000060C13191F252B31363C4147CA
:100FB0004C51555A5E62666A6D707375787A7B7DA6
:100FC0007E7E7F7F11241FBECFEFDAE0DEBFCDBF74
:100FD00012E0A0E0B1E0EEECFFE402C005900D925B
:100FE000A035B107D9F729E0A0E5B2E001C01D9214
:100FF000AF3AB207E1F7D3D70C94CD2701C85F937E
:101000005FB75F9357EE56BD4F93AF93BF93B9E071
:10101000A091AD095091AE09452F53955093AE095B
:1010200053B15295507E477069F04530B9F0423067
:1010300069F04330F1F04630E9F04130E1F04430FE
:10104000D9F01BC0529556955E931AC0550F4C911E
:10105000542B5C935527551F5E9312C057FB550FB9
:10106000550F4C91542B5C935527551F51F95E93A6
:1010700007C056955695569556954C91542B5C93B2
:10108000A093AD09BF91AF914F915F915FBF5F9109
:101090001895DC0154E0A50F5C91509550FB5095DC
:1010A000A1503C913695579550933F0742E0340F3D
:1010B00033705C91A1504C91469557955C7F532BB2
:1010C0005093400738E0430F4F70A2505C91550F8A
:1010D000550F5051507F542B509341073C9142E0A3
:1010E000340F3370A3954C91407F342B3295330FDE
:1010F000330F54E0A50F5C91509556953795569552
:1011000037953093420756F9A3504C9145FB57F958
:1011100050934307A1505C9138E0530F5F70440F28
:10112000551F440F551F509344070895DC0145E0B7
:10113000A40F5C91A395A3953C913873330F32951E
:10114000550F369557954EEF340F337050933F0738
:101150004C914770A3505C91550F469557952EEFD3
:10116000420F4370550F441F550F441F532B50938C
:101170004007342FA2505C91A3954C914871550FB4
:10118000440F429546955795409540FB5295452F03
:10119000407F432B409341075F7054F9352FA35094
:1011A0005C91507747E0A40F4C9146FB57F95051A2
:1011B00057FB550F532B50934207332730F9AA950D
:1011C0005C91A3504C9146FB57F950954427550F1D
:1011D000441F532B50934307342FA2505C91A39587
:1011E000A3954C914770550F469557952EEF420F9A
:1011F000437057FB550F532B50934407440F40F94E
:10120000409345070895482F362F8827F894E09A91
:10121000E89A2227189B2FEF51E053BD5CE956BD99
:10122000A89A2093AE095DEA5093AD09789424986A
:10123000259850E05A95F1F7249A259A5091AE09D5
:10124000521719F4A89BFACF08955091AE09521B7A
:10125000250F231728F444238AF7450F7AF3E7CFA5
:1012600083950895D0DF882371F05091AE095631EF
:1012700051F4F89455275093AE095091AD09539508
:101280005093AD09789408950E94D22086E080930F
:10129000590283E08093810085E085BD80915902E9
:1012A000815048F588EE93E00E94B5120E946B13BE
:1012B00010BA81B38C7C81BB80917A008760809367
:1012C0007A0080917C00806480937C0080917C0017
:1012D000806280937C0080917A00806880937A009D
:1012E00080917A00886080937A0080917A0080648F
:1012F00080937A000895E82FF0E0DF01A15CB84FF9
:101300009C91E05BFD4F2081291751F29083C8CF5B
:1013100081E090E00895CF93DF93EB0180E1FB0142
:1013200011928A95E9F783E085BD0E941021809192
:101330005C02811581F110925C028091640284301C
:1013400009F4A7C040F4811569F0813009F49BC00D
:10135000109264020EC08530D9F780917900809395
:101360006802F6CF809179008093650281E08093D6
:10137000640280917C00887F80937C00909164025D
:1013800080917C009770892B80937C0080917A00FB
:10139000806480937A0091E098838091460784303E
:1013A00009F07DC080914107482F50E0409550954D
:1013B0002091420730E0F0EC2F2766E03695279524
:1013C0006A95E1F7BA01660F771F660F771F6C7792
:1013D0007727262B372B46FB6627772767F9262B9F
:1013E000372B45FB4427552750F9242B352B3E87B7
:1013F0002D8786FB882780F9892790915A029115BD
:1014000021F090915B02981731F080935B0291E09C
:1014100090935A0209D68091430790E0982F88272D
:101420008827937020914407820F911D9A838983A6
:101430008091430724E0829FC0011124807F937034
:101440009C838B838091420780958F732FEF289F19
:10145000C0011124EFE3F0E0BF010E9444276A8736
:101460008091430786958695289FC0011124BF016E
:101470000E9444276B871F8288E08F8781E090E07D
:10148000DF91CF910895809179008093660284E086
:101490006ECF809179008093670285E068CF80915C
:1014A000400790E0982F88278827937020913F0766
:1014B000820F911D9A8389832091400721FF03C0E9
:1014C0009C6F9A838983209141073091400736951C
:1014D000369540E4249FC0011124807C9370830FD3
:1014E000911D23FD9C6F9C838B838091430790917A
:1014F000420764E0869FA00111244C7F5170392F70
:101500003295369536953370430F511D5E874D8762
:1015100022952F702F879F7390529F8320914407AD
:10152000922F990F9E7787FB882780F9890F25FDD9
:10153000806C8C871E821D82809167028A878091D1
:1015400068028B878091660288878091650289870F
:1015500095CF0F931F93CF93DF93CDB7DEB76097EF
:101560000FB6F894DEBF0FBECDBF8B01BE016F5F1B
:101570007F4FD1DE8981F80180838A819B819283AC
:1015800081838C85809583838B8584838E859F85DD
:10159000968385838889878381E090E060960FB683
:1015A000F894DEBF0FBECDBFDF91CF911F910F9199
:1015B00008958F9381E080935C028F911895CF926C
:1015C000DF92EF92FF920F931F93CF93DF9300D0A0
:1015D000CDB7DEB76A837A01292F30E08983943052
:1015E00009F486C02530310578F506E610E05EE0A6
:1015F000C52E51E0D52E2230310559F0233031056A
:1016000009F44FC021303105E1F100E010E0C12CB8
:10161000D12C61E070E0CE0101960E948F2161E043
:1016200070E0CE0102960E94DB21F701D182C082D8
:10163000C8010F900F90DF91CF911F910F91FF90F4
:10164000EF90DF90CF90089509E010E040E2C42EC3
:1016500041E0D42E21323105E1F222323105A9F6E2
:10166000809146070EE415E078E9C72E71E0D72E89
:10167000843079F20CE515E026EEC22E26E0D22E5B
:10168000C8CF8091460702E110E0B4E7CB2EB1E06D
:10169000DB2E843009F4BDCF36E8C32E31E0D32EE3
:1016A000B8CF811589F0823009F0AFCF809146071D
:1016B0008430A1F4ECEAF0E0E4910E2F10E0FCEAB3
:1016C000CF2EF0E0DF2EA5CFEAE0F1E0E4910E2F7F
:1016D00010E0AAE0CA2EA1E0DA2E9BCFE8EDF0E000
:1016E000E4910E2F10E0E8EDCE2EE0E0DE2E91CF5B
:1016F0008A8109E010E097E1C92E91E0D92E811589
:1017000009F487CF6FE3C62E61E0D62E813009F44D
:1017100080CF8DE5C82E81E0D82E7BCF9BB19F7BFB
:10172000892B8BB9089584B7877F84BF0FB6F8944F
:10173000A89580916000886180936000109260009D
:101740000FBE80E890E00FB6F8948093610090930C
:1017500061000FBE569A5E9897DD0C943A2380E4A0
:10176000DDCF80E0DBCFCF93DF9342E361EC81E01C
:101770000E947722D82F42E360EC82E00E94772219
:10178000C82F42E161E883E00E947722CD23C8237D
:1017900042E160E884E00E947722C82342E061ECE5
:1017A00085E00E94772210920001109201011092B0
:1017B000020110920301109248078C2391E08927BF
:1017C0008295880F880F807CDF91CF91A7CFEF9211
:1017D000FF921F93CF93DF93CDB7DEB760970FB61D
:1017E000F894DEBF0FBECDBF80915309909154098C
:1017F00030E0E32E31E0F32E019711F0E12CF12CD3
:1018000010910502812F0E9444218115B1F08AE5D3
:101810009DE00E94B92162E070E081E599E00E94BC
:101820008F2162E070E083E599E00E948F2161E002
:1018300070E080E599E00E94DB21809150098032C0
:1018400009F4F5C088F4813071F1893009F49DC044
:1018500060960FB6F894DEBF0FBECDBFDF91CF917B
:101860001F91FF90EF900895813209F4C2C0823237
:1018700079F7812F0E944421811521F08AE19DE0B2
:101880000E94B92180914F09813211F78091E800BF
:10189000877F8093E8000E94AA228091510981707D
:1018A00080934807D5CF812F0E944421811521F0D4
:1018B00089E092E00E94AF2180914F09813A41F680
:1018C00080E42CDF8091510990915209863023E009
:1018D000920719F58FEC97E00197F1F700C000002F
:1018E0008091E800877F8093E80065E070E086E9FA
:1018F00092E00E94FB248091E8008B778093E800BF
:1019000080E060960FB6F894DEBF0FBECDBFDF91CA
:10191000CF911F91FF90EF9001CF873023E0920786
:1019200069F4CE01019672D48091E800877F80939C
:10193000E80065E070E0CE010196DBCF292F332768
:10194000232B69F4029759F4CE01019657D3809165
:10195000E800877F8093E80063E070E0ECCF80913F
:10196000E800877F8093E8008091510990914607B5
:10197000BE016F5F7F4F943021F4EBDD68E070E0D3
:10198000DACFC9DC60E170E0D6CF812F0E9444211C
:10199000811521F083E192E00E94AF2180914F09EF
:1019A000813209F055CF80E4B9DE8091E800877F6D
:1019B0008093E8006091550970915609CE01019617
:1019C0000E9451250E94AA228091510990915209AA
:1019D0008530934059F48FEC97E00197F1F700C000
:1019E000000066E972E0CE010196CED580E096DE79
:1019F0002FCF812F0E944421811521F086E49DE0A4
:101A00000E94B92180914F09813A09F021CF80913C
:101A1000E800877F8093E80067E070E0C7010E94DC
:101A2000FB248091E8008B778093E80011CF812F11
:101A30000E944421811521F082E39DE00E94B9219A
:101A400080914F09813209F003CF8091E800877FB0
:101A50008093E80067E070E0C7010E945125809103
:101A6000E8008E77E1CF8F929F92BF92CF92DF9264
:101A7000EF92FF920F931F93CF93DF93CDB7DEB713
:101A8000C354D1090FB6F894DEBF0FBECDBF80910D
:101A90004E09843009F05AC081E08093E9008091BA
:101AA000E80080FF15C0CE018F5B9F4F95D2811556
:101AB00009F45FC040E050E063E070E0CE018F5B6E
:101AC0009F4F0E945D248091E8008E778093E8000C
:101AD00082E08093E9008091E80082FF37C080E4D3
:101AE0001DDE10E0CE0101967C019091F300809103
:101AF000F200892B31F1103420F540E050E061E034
:101B000070E0C7010E94AC24BE2C0F2D8530A9F3D4
:101B10001F5FE9818FEF8E0F8E3058F4E150FF0B7D
:101B2000EE0FFF1FE65FFE4FC080D180C114D104CD
:101B3000B9F59091F3008091F20060E070E00E94AE
:101B400019248091E8008B778093E800CD5BDF4F0C
:101B50000FB6F894DEBF0FBECDBFDF91CF911F91BE
:101B60000F91FF90EF90DF90CF90BF909F908F905C
:101B700008958091090190914607BE016F5F7F4FE4
:101B8000943041F4E6DC40E050E068E070E0CE01E3
:101B9000019697CFC0DB40E050E060E170E0F7CF06
:101BA000460191E0891A9108C401810F911D813489
:101BB000910508F0BECF40E050E0B401CE0102969E
:101BC0000E94AC248530B9F3180DB6018B2D902FEF
:101BD000F0D68FE99FE00197F1F700C0000085CFB4
:101BE000982F80ED890F8A3070F08FE9890F863049
:101BF00018F489EA890F08958FEB890F863010F465
:101C000089ECF8CF8FEF0895CF93DF930F92CDB784
:101C1000DEB78DEB9CE00E94B9211982CE010196BE
:101C20006DD7811124C080919C02811521F08AEA30
:101C30009CE00E94B92180919D02811521F085E9E7
:101C40009CE00E94B92180919E02811521F080E8DC
:101C50009CE00E94B92180919F02811521F08FE6BE
:101C60009CE00E94B9210F90DF91CF9108950E94CE
:101C70005422D4CF843639F48091080160956823CA
:101C800060930801089580910801862B80930801D4
:101C90000895982F862F983009F4AEC7913009F433
:101CA000B1C7953009F4B4C7923009F4B7C782E4DC
:101CB0009CE00C94D121EF92FF920F931F93CF934E
:101CC000DF930F92CDB7DEB789838B017A0186EE61
:101CD0009CE00E94B92161E070E0CE0101960E9473
:101CE0008F218EED9CE00E94B921B701C8010E94AE
:101CF000DB218981982F9F7D943459F4F80160810C
:101D0000B9DF0F90DF91CF911F910F91FF90EF906E
:101D100008958D3621F4B701C8011DD5F2CF85375E
:101D200021F4B701C80145D6ECCF60E0843719F043
:101D3000843529F461E0F8018081ABDFE2CF60E017
:101D4000853619F0853429F461E0F80180816CD77B
:101D5000D8CF87EC9CE00E94D121D3CF1F93CF93A3
:101D6000DF930F92CDB7DEB7182F698380910502FC
:101D70000E944421811551F087EF9CE00E94B92117
:101D800061E070E0CE0101960E94DB21E0919102BA
:101D9000F0E0E759FD4F89818083809191028F5F48
:101DA000809391029091910280919502981758F03A
:101DB0004091950250E069E672E0812F7CDF10923D
:101DC0009402109291020F90DF91CF911F9108958C
:101DD0000F931F93CF93DF930F92CDB7DEB7898315
:101DE0008091940210910502811120C0812F0E94E0
:101DF0004421811531F061E070E0CE0101960E942E
:101E0000DB2189819FED980F9A3518F48C3639F4CF
:101E1000FBDE0F90DF91CF911F910F91089580937A
:101E200094021092930210929502F3CF812F0E9498
:101E30004421811531F061E070E0CE0101960E94ED
:101E40008F21009193028981CBDE01110AC08F3F5F
:101E500001F391E0909393028295807F80939502A5
:101E6000D8CF90919302913031F58F3F91F292E06B
:101E70009093930290919502890F8093950280919F
:101E80009502811521F080919502893218F0109207
:101E90009402BFCF812F0E944421811509F4B9CF4C
:101EA00086E09DE00E94B92161E070E085E992E062
:101EB0000E94DB21AECF8F3F09F4ABCF909193020C
:101EC0009F5F909393029091930290FF05C082953B
:101ED000807F809392029DCF90919202890F809390
:101EE0009202609192028091940238DF92CFEF9239
:101EF000FF920F931F93CF93DF93CDB7DEB7C058F8
:101F0000D1090FB6F894DEBF0FBECDBF10914E09B8
:101F1000143021F50E9454221093E9008091E800CA
:101F200082FF1CC080E4FADB00E010E09091F30037
:101F30008091F200892B19F000381105E8F08091AA
:101F4000E8008B778093E800CE0101967C01080FB2
:101F5000191FE016F106F1F480E0E0DBC058DF4F16
:101F60000FB6F894DEBF0FBECDBFDF91CF911F91AA
:101F70000F91FF90EF9008950F5F1F4F40E050E0EA
:101F800061E070E0CE01800F911F0E94AC2485308B
:101F900099F3CCCFF70181917F011ADFDACFC3DB50
:101FA00080E0BCDB7894B4D9892B59F05CDD0E94C9
:101FB00054229DDF0E9454220E9432270E94542204
:101FC000F2CF80E4ABDB8CE291E0CFD280E0A6DB05
:101FD0008CE291E0CAD2E7CFFC0180913C078115E9
:101FE00061F08091B5029091B602A091B702808312
:101FF0009183A28310923C0781E008952091B5025D
:102000003091B6024091B702FC01208331834283B4
:10201000089522E2829FC00111248A5D9E4F909311
:102020003E0780933D070895E0913D07F0913E07FC
:10203000309721F00480F581E02D099408952091D6
:10204000070130E097E3822F253118F5929FF001C8
:10205000939FF00D1124E754FD4F4081B9016F5F4C
:102060007F4F411114C031E0320F30930701299F97
:1020700090011124F901E754FD4F91E090832B5218
:102080003D4F9BE1F90111929A95E9F708959B0163
:10209000DACF80E008959FEF980F943190F497E3A2
:1020A000899FF0011124E754FD4F9081911549F06B
:1020B00090819260908380688093B70281E08093E2
:1020C0003C0708959FEF980F943108F5282F30E0D2
:1020D00097E3899FF0011124E754FD4F90819115FA
:1020E000B1F090819D7F9083F901E556FD4F958178
:1020F000911108C0E0913D07F0913E070484F585F9
:10210000E02D09951092B70281E080933C07089575
:10211000CF93C1E08C2FD6DFCF5FC531D9F7CF91F8
:102120000895CF93C82F8FEF8C0F843108F587E384
:10213000C89FF0011124E754FD4F108280910701E0
:10214000C81710F4C0930701E0913D07F0913E07D6
:102150000684F785E02D8C2F09958091B8028C13A9
:1021600002C01092B8021092B70281E080933C073F
:10217000CF91089582E080930701E9EBF2E083E8D4
:1021800094E0DF019C011D9221503040E1F7109254
:10219000B8021092B70281E080933C0708959C0139
:1021A0002F3F320751F0C901969587958F77992770
:1021B00022273F77822B932B089580E090E00895AB
:1021C0009C012F3F320751F0C901880F991F8827C2
:1021D0009F772F773327822B932B089580E090E011
:1021E0000895282F082E000C330B87FF02C02058BB
:1021F0003048C9010895689FC00111246FEF70E055
:102200000E944427CB01969587950895CF93DF933D
:10221000EC01809105020E944421811521F08EEF8E
:102220009DE00E94D121A6DF87E088838FEF9FEF9A
:102230009A8389838AE08B8383E08C83DF91CF91BB
:1022400008950F931F93CF93DF938C01FC01C181FD
:102250008FEF8C0F8431D0F492819C30B8F4F7E387
:10226000CF9FE00111249E01290F311D4CE0491B35
:1022700050E0B8016D5F7F4FC9018B539D4F0E94A5
:10228000C427F8018281C754DD4F888FDF91CF9139
:102290001F910F910895FC0180913D0790913E0799
:1022A0008854914079F48091B8029FEF980F94314F
:1022B00048F497E3899FB001112467547D4F418111
:1022C0000C94371F0895CF93FC01C1818281813026
:1022D00041F5CF3F09F048C081E090E037E3389FF7
:1022E000F001399FF00D1124E754FD4F2081211595
:1022F00019F020812260208301968531910579F7BC
:10230000E0913D07F0913E070284F385E02D8FE7D1
:1023100009958FEF8093B70281E080933C07CF91BE
:1023200008958230C1F5F4DEE0913D07F0913E075B
:102330000484F585E02D8FE70995CF3FA9F481E06E
:1023400090E037E3389FF001399FF00D1124E754F6
:10235000FD4F2081211519F02081226020830196F4
:102360008531910579F7CCCF8FEF8C0F8431B8F69A
:102370008C2F91DEEC2FF0E0E556FD4F8581811129
:10238000CECFE0913D07F0913E070284F385E02D2A
:102390008C2FCF910994833009F0C1CFCF3F69F4DE
:1023A000B7DEE0913D07F0913E070484F585E02D0E
:1023B0008FE709951092B702AFCF8FEF8C0F843162
:1023C00008F0ADCF8C2FCF917DCECF93DF930F92BE
:1023D000CDB7DEB7FC0181818983809105020E941F
:1023E0004421811551F081EF9DE00E94B92161E007
:1023F00070E0CE0101960E94DB2189818F3F71F44C
:10240000B9DEE0913D07F0913E070684F785E02DA7
:102410008FE709950F90DF91CF91089582DEFACF73
:10242000CF93FC01C18182E08093B5028091B60216
:1024300084618093B602E0913D07F0913E070680EB
:10244000F781E02D8C2F0995C430D1F158F4C230BA
:10245000C1F0C330E1F0C13061F081E080933C070E
:10246000CF910895C530C1F1C630B9F78115A9F3F0
:102470002FC0811591F38091B60282608093B602DD
:10248000ECCF811551F38091B6028D7FF7CF811586
:1024900021F381E090E037E3389FF001399FF00DA0
:1024A0001124E754FD4F20812D7F20830196853133
:1024B000910591F71092B70281E080933C07CDCF50
:1024C000811559F257DE8091B60282608093B60280
:1024D0008091B6028E7FD2CF811509F4BECF809154
:1024E000B6028160CBCFCF93DF93EC0183EE9DE00A
:1024F0000E94B92161E070E0CE0101960E94DB21CB
:10250000E0913D07F0913E070288F389E02D898133
:10251000DF91CF910994DC011196EC9111978FEF27
:102520008E0F843188F4E093B80212968C91129742
:1025300097E3E99FF0011124E754FD4F818F139633
:102540008D919C91938F828F0895811101C0089580
:1025500090E39A95F1F78150F8CF2498259885E07B
:10256000F4DF249A259A81E0F0CF9C0121153105F2
:1025700009F40895A8958FE99FE00197F1F700C04D
:10258000000021503109F2CFCF92DF92EF92FF92FB
:102590000F931F93CF93DF936C01EB0186E0888349
:1025A0004EDD8983811135C082E08A838FEF9FEFF2
:1025B0009C838B83809105020E9444218115B1F098
:1025C0008DE69EE00E94B92161E070E0CE010196A7
:1025D0000E948F2183E69EE00E94B92161E070E0B5
:1025E000CE0102960E94DB210E94542225E030E0B9
:1025F000AE0168818DE192E00E94E82185E090E0E3
:10260000DF91CF911F910F91FF90EF90DF90CF90CE
:10261000ACCF91E09A8327E3829F70011124870158
:1026200007541D4F8FEF9FE7D80112969C938E930E
:10263000119714969C938E9313978FEF15968C9306
:10264000159716961C9216971B961C921E921A9717
:1026500017968C93179718968C93189758961C92E8
:10266000589759961C9259975B961C921E925A97AE
:10267000F701EB53FD4F8CE0DF011D928A95E9F7DE
:10268000F6018181E0913D07F0913E070084F185DC
:10269000E02D81500995F701EB52FD4F8183E091C8
:1026A0003D07F0913E070488F589E02DB801C60189
:1026B0000995D60111968C918C3009F077CF8091D5
:1026C0003D0790913E078854914009F06FCF898172
:1026D0008093B8026BCFEBE9F2E08AE1DF011D9253
:1026E0008A95E9F7539A1092C8008FE190E0909391
:1026F000CD008093CC0086E08093CA0088E0809370
:10270000C9001092CE00E9EBF2E083E894E0DF012B
:102710009C011D9221503040E1F7E5EBF2E083E0AF
:10272000DF011D928A95E9F710923C0782E08083D1
:1027300096E1918380930701E0913D07F0913E0778
:102740000190F081E02D09949091C80095FFFCCF95
:102750008093CE000895EF92FF920F931F93CF9333
:10276000DF937C018B0180910801811541F089ED97
:102770009DE00E94B921B801C7010E94DB21E70159
:102780000E0D1F1DC017D10739F4DF91CF911F9196
:102790000F91FF90EF9008958991D6DFF3CFDF92EC
:1027A000EF92FF920F931F93CF93DF9300D00F927E
:1027B000CDB7DEB7082FD92E162FE0913D07F09147
:1027C0003E070280F381E02DCE01039609956B81CF
:1027D00070E0C1DF612F70E0802F9D2DBCDF20E015
:1027E0001150D0F421952F772A8361E070E0CE015B
:1027F0000296B1DF87EF898361E070E0CE01019638
:10280000AADF0F900F900F90DF91CF911F910F9142
:10281000FF90EF90DF900895E02EFD2CF70181915D
:102820007F01280F0E2FDF2CDBCFCF92DF92EF92AC
:10283000FF920F931F93CF93DF93EC01098127E35E
:10284000029F80011124C80187549D4F6C01809123
:1028500005020E944421811509F465C087E59EE0C8
:102860000E94B9216EE070E0CE010E94DB218FE46E
:102870009EE00E94B92161E070E0CE0101960E94C5
:10288000DB2187E49EE00E94B92161E070E0CE0187
:1028900002960E94DB218FE39EE00E94B92161E055
:1028A00070E0CE0109960E94DB2187E39EE00E9442
:1028B000B92162E070E0CE0103960E94DB218B8596
:1028C0008115A1F082E39EE00E94B92161E070E0F1
:1028D000CE010C960E94DB218DE29EE00E94B92180
:1028E00061E070E0CE010D960E94DB218D819E811A
:1028F000892B51F083E29EE00E94B92162E070E0F2
:10290000CE0105960E94DB218A85811551F089E16F
:102910009EE00E94B92161E070E0CE010A960E941B
:10292000DB210E945422F801EB52FD4F7F018B8185
:102930009C818F3FFFE79F07C9F131DCF70183835B
:1029400094838B819C81F801E754FD4F92838183AE
:10295000808182FF0CC0F70163817481E0913D07A3
:10296000F0913E070088F189E02D89810995E09179
:102970003D07F0913E0700A0F1A1E02DB601CE0188
:102980000995682FE801C754DD4F888182FD05C095
:10299000C70105DF888184608883DF91CF911F9113
:1029A0000F91FF90EF90DF90CF90089580E090E03E
:1029B000C5CFCF93DF93EC019B01892B19F16115F2
:1029C000710501F188819FEF980F9E30D8F4482F50
:1029D0004150550BFA01EE0FFF1FE65FFE4F40819D
:1029E00051814115510571F06417750758F0883011
:1029F00010F08E3051F489819FEF980F943110F4CC
:102A0000813049F4DF91CF9108958A50823018F4D3
:102A100089818F3F89F75E9AAE016AE071E086E8AE
:102A20009EE00E9409226981E881E150EE3038F48D
:102A3000F0E0E153F84D0C948727CE01F6DE5E9866
:102A4000E1CF57E3659FB001112467547D4FE091BA
:102A50003D07F0913E070688F789E02DCE010995E4
:102A6000EECF87E3689FB001112467547D4FE0915A
:102A70003D07F0913E07008CF18DE02DEFCF47E34D
:102A8000649FB001112467547D4FE0913D07F091A0
:102A90003E07028CF38DE02DE1CF57E3659FB00137
:102AA000112467547D4FE0913D07F0913E07048C5F
:102AB000F58DE02DD3CF87E3689FB00111246754D3
:102AC0007D4FE0913D07F0913E07068CF78DE02D9C
:102AD000C5CFCE01B6DBB3CFCE01DDDBB0CFCE01AB
:102AE000F2DBADCFCE0171DCAACFCE0199DCA7CF4E
:102AF000CE01F9DCA4CFCE010EDDA1CFEF92FF9283
:102B00000F931F93CF93DF938C01DC01CC91C11104
:102B100058C082E08C93C2E0EC2EF12C61E070E0B2
:102B2000C8010E948F21B7E3CB9FE0011124FE0171
:102B3000E754FD4F8081813009F04EC08EEC9DE05E
:102B40000E94B921D801EC91F0E0E556FD4F858156
:102B5000811509F44EC08BEA9DE00E94B92187E3FC
:102B60008E9DF0018F9DF00D1124E754FD4F808163
:102B7000811509F183E99DE00E94B92162E070E0CE
:102B8000CE0186549D4F0E948F2186E89DE00E94D1
:102B9000B92162E070E0CE0184549D4F0E948F21E4
:102BA0008DE79DE00E94B92161E070E0CE01825482
:102BB0009D4F0E948F21F80180818F5F808381E08B
:102BC00004C080E0C43108F4A7CFDF91CF911F91FA
:102BD0000F91FF90EF900895823019F484EC9DE0FE
:102BE000AFCF843019F48EEB9DE0AACF88EB9DE047
:102BF000A7CF8FE99DE0B1CF91E0811190E0909354
:102C00009C02089591E0811190E090939D020895B7
:102C100091E0811190E090939E02089591E08111DE
:102C200090E090939F020895CF93DF930F92CDB7DA
:102C3000DEB7E82F89838FEF8E0F8431F0F4AE2F4B
:102C4000B0E081E0611180E0A556BD4F15968C93F0
:102C500087E3E89FF0011124E754FD4F8081823023
:102C600061F480E79DE00E94B92161E070E0CE014F
:102C700001960E94DB21898125DA0F90DF91CF91A7
:102C80000895CF93C82FC15010F4CF91089565DCFB
:102C90008AE05BDCF8CFCF93DF93CDB7DEB72C971C
:102CA0000FB6F894DEBF0FBECDBF9CE0E4E2F2E0C9
:102CB000DE01119601900D929A95E1F78C3070F437
:102CC000FE013196E80FF11D80812C960FB6F89425
:102CD000DEBF0FBECDBFDF91CF91089580E0F5CF6D
:102CE0001F93CF93DF93CDB7DEB72A970FB6F89433
:102CF000DEBF0FBECDBF182F85EC91E09A87898784
:102D000088E0EAE6F1E0DE01119601900D928A95E5
:102D1000E1F762E070E0CE0109961DDD111108C0F7
:102D200086E490E022DC68E070E0CE01019613DDDD
:102D30002A960FB6F894DEBF0FBECDBFDF91CF91BC
:102D40001F910895CF93DF93CDB7DEB7CF55D1094B
:102D50000FB6F894DEBF0FBECDBF85EC91E0A09614
:102D60009FAF8EAFA09789E0E2E7F1E0DE01AB5ABA
:102D7000BF4F01900D928A95E1F783E3EBE7F1E015
:102D8000DE01119601900D928A95E1F781E2EEEA5B
:102D9000F1E0DE01D49601900D928A95E1F784E688
:102DA00090E0E3DBDADB87E090E0DFDB84E069DF03
:102DB00083E290E0DADB83E064DF8EE090E0D5DB55
:102DC00082E05FDF8EE490E0D0DB82E05ADF84E0D7
:102DD00090E0CBDB83E055DF8BE390E0C6DB82E065
:102DE00050DF62E070E0CE01825A9F4FB4DC84E194
:102DF00090E0BBDB69E070E0CE018B5A9F4FABDC0B
:102E000089E390E0B2DB63E370E0CE010196A3DCDE
:102E100061E270E0CE01C4969EDC80E061DF86E472
:102E200090E0A3DBC15ADF4F0FB6F894DEBF0FBEB0
:102E3000CDBFDF91CF910895CF93DF9300D0CDB771
:102E4000DEB725EC30E03A8329839FEF980F963068
:102E500088F4E82FF0E0ED52FE4F80818A8362E033
:102E600070E0CE01019677DC81E00F900F90DF914A
:102E7000CF91089580E0F9CF25E0FC0120838FEC0D
:102E800091E00895CF93DF9300D00F92CDB7DEB7D6
:102E900095EB998390E29A838B8363E070E0CE0197
:102EA000019659DC0F900F900F90DF91CF9108950C
:102EB000CF93DF9300D00F92CDB7DEB795EB998318
:102EC00090E39A838B8363E070E0CE01019643DC4C
:102ED0000F900F900F90DF91CF910895CF93DF93D4
:102EE00000D00F92CDB7DEB795EB998390E19A832E
:102EF0008B8363E070E0CE0101962DDC0F900F9084
:102F00000F90DF91CF9108950F931F93CF93DF938D
:102F100000D00F92CDB7DEB78A0195EB99836A8313
:102F20008B8363E070E0CE01019615DC85EA89832E
:102F30000F770A831F771B8363E070E0CE01019651
:102F40000ADC0F900F900F90DF91CF911F910F919E
:102F50000895AB0160E4D8CF8695482F50E060E03B
:102F60008FE7D2CFAF92BF92CF92DF92EF92FF92D4
:102F70000F931F93CF93DF930F92CDB7DEB77C01F2
:102F80008B01FC0181818983809105020E9444218B
:102F90008115E9F185E99FE00E94B92168E070E0C0
:102FA000C7010E94DB218BE89FE00E94B92161E00C
:102FB00070E0CE0101960E94DB2181E89FE00E9433
:102FC000B92161E070E0C70102960E94DB2187E72A
:102FD0009FE00E94B92161E070E0C70103960E9462
:102FE000DB2189E69FE00E94B92162E070E0C70121
:102FF00004960E94DB218BE59FE00E94B92162E0EC
:1030000070E0C70106960E94DB210E945422F7015E
:103010008281F8018783F7018381F8018087F701B6
:1030200086819781F801948383836581F70182818A
:10303000E2D8F80182A76581F7018381DCD8F80125
:1030400080ABF70184819581AAD8F80194A783A762
:10305000F701868197818F3F9F4751F5F80117A6A9
:1030600016A6F801808182FF17C046A557A560E625
:1030700089814ADFF80143A554A56CE5898144DFC5
:10308000F80140A950E06CE689813EDFF80142A5D5
:1030900050E064E6898138DF0F90DF91CF911F9176
:1030A0000F91FF90EF90DF90CF90BF90AF90089579
:1030B000F8018181928123813481821B930B6FD827
:1030C000F80197A786A7CDCF2F923F924F925F929C
:1030D0006F927F928F929F92AF92BF92CF92DF9228
:1030E000EF92FF920F931F93CF93DF930F92CDB781
:1030F000DEB77C018B01FC0181818983809105020F
:103100000E944421811599F18CE49FE00E94B9212D
:1031100069E070E0C7010E94DB2183E49FE00E9428
:10312000B92161E070E0CE0101960E94DB2189E3C4
:103130009FE00E94B92161E070E0C70102960E9401
:10314000DB218FE29FE00E94B92161E070E0C701BE
:1031500003960E94DB2185E29FE00E94B92161E095
:1031600070E0C70104960E94DB210E945422F801FE
:10317000858D8031B0F48D3068F50F90DF91CF915F
:103180001F910F91FF90EF90DF90CF90BF90AF9085
:103190009F908F907F906F905F904F903F902F9077
:1031A0000895803151F7F70184819281911156C0C1
:1031B00018D8F80194A383A3F801808182FFDDCFA2
:1031C0008981F7019281F80191114EC043A154A168
:1031D00068E423C0F70184819281911120C001D855
:1031E000F80194A383A3F70183810E94F110F801F1
:1031F00090A787A3F801808182FFBFCF8981F70163
:103200009281F801911121C043A154A168E47CDEB0
:10321000F80147A150A560E5898176DEAECF0E9416
:10322000F110F80196A385A3F7018381803831F46A
:103230008FE790E0F80192A781A7DCCF81950E94EB
:10324000F110F80192A781A7D5CF45A156A16CE452
:103250005BDEF80141A552A564E5DECF0E94F110C6
:10326000F80196A385A3A8CF45A156A16CE4D5CFBC
:103270008F929F92AF92BF92CF92DF92EF92FF9286
:103280000F931F93CF93DF930F92CDB7DEB77C01DF
:103290008B01FC018181898380910502F5D781151D
:1032A000E9F187E19FE00E94B92167E070E0C70182
:1032B0000E94DB2181E19FE00E94B92161E070E082
:1032C000CE0101960E94DB2184E09FE00E94B9219B
:1032D00061E070E0C70102960E94DB2187EF9EE06B
:1032E0000E94B92161E070E0C70103960E94DB21D2
:1032F0008AEE9EE00E94B92161E070E0C701049669
:103300000E94DB218DED9EE00E94B92162E070E019
:10331000C70105960E94DB210E945422F701828199
:10332000F80181878FE790E094AB83AB81E091E077
:1033300096AB85ABF7016581768181E090E0683ED0
:10334000F3E07F0730F46630710508F056C089E27B
:1033500091E0F80192AB81ABF801858D823019F0D4
:10336000858D833099F5F70184818052813C08F086
:103370004FC083E0F801858F6581F70182810E944B
:10338000FB10982EF701838187FD8F5F8595890D4E
:103390000E94F110F80194AB83ABF701838187FDA4
:1033A0008F5F859589190E94F110F80196AB85AB66
:1033B000808182FF0BC043A954A964E78981A4DD01
:1033C000F80145A956A968E789819EDDF801808149
:1033D00082FF05C041A952A960E7898195DD0F9060
:1033E000DF91CF911F910F91FF90EF90DF90CF90E1
:1033F000BF90AF909F908F90089588EE93E00E94C9
:103400004427CB010E94E010F80192AB81ABA4CF1E
:1034100082E0B0CFEF92FF920F931F93CF93DF9391
:103420000F92CDB7DEB77C018B01FC0181818983CE
:103430008091050229D78115C9F089EC9EE099D7C2
:1034400064E070E0C701B7D783EC9EE092D761E0FB
:1034500070E0CE010196AFD786EB9EE08AD762E09E
:1034600070E0C7010296A7D70E945422F70182811B
:10347000F8018187F70182819381F801658197FDC9
:1034800021C00E94FB10F80185A78FE790E094AB64
:1034900083ABF80116AA15AA808182FF0BC045A54F
:1034A00050E064E7898130DDF80143A954A96CE755
:1034B00089812ADD0F90DF91CF911F910F91FF90AD
:1034C000EF90089580950E94FB10F80185A781E098
:1034D00091E0DDCFCF92DF92EF92FF920F931F9397
:1034E000CF93DF930F92CDB7DEB77C018B01FC0148
:1034F0008181898380910502C7D6811501F186EA11
:103500009EE037D764E070E0C70155D780EA9EE0BF
:1035100030D761E070E0CE0101964DD787E99EE09B
:1035200028D761E070E0C701029645D78EE89EE09B
:1035300020D761E070E0C70103963DD7B5D7F7010A
:103540002281822F022E000C990B27FF03C0809549
:1035500090959160F80194AB83ABF70183810E9451
:10356000F110F80196AB85AB808182FF0BC043A9B7
:1035700054A968E78981C8DCF80145A956A964E720
:103580008981C2DC0F90DF91CF911F910F91FF9045
:10359000EF90DF90CF9008958F929F92AF92BF925D
:1035A000CF92DF92EF92FF920F931F93CF93DF930F
:1035B0008C01EB01FC0182818B30C8F4883008F06B
:1035C000B3C0882483948330B0F4812C811113C05C
:1035D0008BE190E0DF91CF911F910F91FF90EF90E1
:1035E000DF90CF90BF90AF909F908F9008958B30D9
:1035F00079F79881EECFF8019180848590E0880F6B
:10360000991F9C01220F331F222733708F77992730
:10361000822B932B9CA38BA3838194818F3F9F4705
:1036200009F056C01FA61EA6AD80F801B184AB14E8
:1036300069F1BD828F816B2D0E94FB108AA788855E
:10364000F80161850E94FB1088AB811409F45DC00C
:103650006D8189850E94FB10182F8E81810F0E9439
:10366000F1109CAB8BAB8E81811B0E94F1109EAB45
:103670008DAB888182FF0AC04BA95CA964E7892DC4
:1036800043DC4DA95EA968E7892D3EDC888182FF75
:1036900043C04BA15CA168E4892D36DC4EA55FA533
:1036A00060E6892D31DCAB1409F492CF48A950E0D3
:1036B0006CE6892D29DC4AA550E064E6892D24DCDE
:1036C000811086CF4DA550E064E7892D1DDC80CFA9
:1036D0008B819C818F3F9F4709F4A4CF89819A8178
:1036E0002B813C812817390758F489819A812B81D5
:1036F0003C81821B930B0E94CF109FA78EA794CF73
:103700008F8D98A19FA78EA78FCF8985F80161859E
:103710000E94FB108DA7BACF6BE1CE014C963FD82B
:1037200088818460888354CF88818FE052CFDC0108
:10373000FB019FE795A721E030E032AB21AB12A659
:1037400014A613A610AA17A616A683E2848F968F36
:1037500012A211A295A384E690E097A386A380E12C
:103760009EE491A780A711968C91813019F416AA36
:1037700015AA089581E091E096AB85AB0895CF93AB
:10378000DF9300D000D000D0CDB7DEB791EF9983A2
:103790008B8391E09C836D837E83760F7E508F7B3D
:1037A000780F71957F777A8366E070E0CE0101969D
:1037B0000E94AB130F900F900F900F900F900F90EF
:1037C000DF91CF910895CF93DF9300D00F92CDB7C3
:1037D000DEB792EF99838B83962F9295907F692F16
:1037E000682762956F708F7068278DE06827692B56
:1037F0006A8363E070E0CE0101960E94AB130F90E4
:103800000F900F90DF91CF910895CF93DF9300D069
:1038100000D000D0CDB7DEB791EF99836B838C8356
:103820004D835E83840F850F860F90EF980F97FD71
:1038300002C060646B839FE0981B892F8F778A8317
:1038400066E070E0CE0101960E94AB130F900F90DE
:103850000F900F900F900F90DF91CF9108950F93DD
:103860001F93CF93DF93EC01DB01842F622F2D9107
:103870003C9111972017310761F011961C930E931C
:10388000988192FF06C0A801DF91CF911F910F91FF
:10389000BCCFDF91CF911F910F9108950F93DC0161
:1038A000FB01842F622F9081901741F000839C913F
:1038B00092FF04C0402F50E00F91A7CF0F910895C1
:1038C000482F282F30E0A4E6B0E00E948D27643610
:1038D00071058105910540F06115724381059105DF
:1038E00008F04FE7842F089580E00895FF920F932A
:1038F0001F93CF93DF93182FEB0109A1AA85BB85F6
:10390000E02FEF73E13218F080E48E1BE82FF0E037
:10391000ED55F04F249130E00E949C272FE730E0D6
:1039200040E050E00E946B27C90106FF04C08827D1
:103930009927821B930BF12C97FF05C091958195D8
:1039400091092FE7F22E6D81811521E0920714F085
:103950008FEF90E00E94FB10B3DF082FBE016A5D7D
:103960007F4F26E0412FCE0199DFBE01665D7F4F7C
:103970000F2D29E0412FCE0191DFDF91CF911F91D3
:103980000F91FF9008959C0197FF0FC088279927FA
:10399000821B930B20383F4F11F48FE790E090DFAC
:1039A00090E091958195910908958038910514F0E2
:1039B0008FE790E085DF90E00895CF93DF93CDB758
:1039C000DEB72C970FB6F894DEBF0FBECDBF9CE0DC
:1039D000E1E3F2E0DE01119601900D929A95E1F794
:1039E0008C3070F4FE013196E80FF11D80812C9629
:1039F0000FB6F894DEBF0FBECDBFDF91CF91089513
:103A000080E0F5CFCF93DF93CDB7DEB7A2970FB6A7
:103A1000F894DEBF0FBECDBF83EF9DE19AA389A3CB
:103A200088E1EAEDF1E0DE01119601900D928A95B0
:103A3000E1F788E0E2EFF1E0DE01599601900D92A6
:103A40008A95E1F784E690E00E94B51262E070E0AA
:103A5000CE0181960E94AB1368E170E0CE01019621
:103A60000E94AB1362E070E0CE0181960E94AB131E
:103A700068E070E0CE0149960E94AB1384E690E0C6
:103A80000E94B512A2960FB6F894DEBF0FBECDBF4E
:103A9000DF91CF910895CF93DF9300D0CDB7DEB7FC
:103AA00023EF30E03A8329839FEF980F963090F40C
:103AB000E82FF0E0E250FE4F80818A8362E070E000
:103AC000CE0101960E94AB1381E00F900F90DF9121
:103AD000CF91089580E0F9CF25E0FC0120838AEFA3
:103AE00091E0089562E06FCE63E06DCE811102C077
:103AF00081E0FACF60E67DE683E441DE6EE37EE4BA
:103B000084E03DDE6EE37FE285E439DE6EE570E160
:103B100086E435DE81E0E6CF61E055CEAB0160E0C2
:103B200074CE8695482F50E060E080E06ECE8F9294
:103B30009F92AF92BF92CF92DF92EF92FF920F933C
:103B40001F93CF93DF937C01EB01FC01D1806D814A
:103B500082810E94FB10082F6D81F70183810E94F2
:103B6000FB10982EF701848195810E94CF10C82EFA
:103B7000192F89819A81A12CB12C8F3FFFE79F07D4
:103B800081F0F701268137812817390738F4821B25
:103B9000930B0E94CF105C01892B19F4AA24A394E3
:103BA000B12CF70182818F838381888786819781F9
:103BB0009C838B83ED8C802F83DE082F892D80DE04
:103BC000F82ECE0189964C0196E0BE01E91229C07B
:103BD0006D5D7F4F24E04D2DCE0160DEBE016C5D3A
:103BE0007F4F0C2D25E04D2DCE0139DEBE01695DE4
:103BF0007F4F850127E04D2DCE0131DE0F2D28E0CE
:103C00004D2DB401CE014ADEDF91CF911F910F916E
:103C1000FF90EF90DF90CF90BF90AF909F908F90EC
:103C200008956B5D7F4F25E04D2DCE0137DEBE013F
:103C30006A5D7F4F0C2D26E04D2DCE0110DE8501F3
:103C400028E04D2DB401CE010ADEBE01655D7F4F37
:103C50000F2D29E04D2DD6CF8F929F92AF92BF921C
:103C6000DF92EF92FF920F931F93CF93DF938C011C
:103C7000EB01FC01D1808D8D8B3071F59D818481AC
:103C800087FD8195899FC00111246FEF70E00E942C
:103C90005827CB0178DE9C014DE3429FC001439F32
:103CA000900D11246FE770E00E9458278B01005C93
:103CB0001F4FBE016E5D7F4F23E04D2DCE01EEDD27
:103CC000DF91CF911F910F91FF90EF90DF90BF9008
:103CD000AF909F908F90089582818111F1CF2D81B7
:103CE00034813203C001112488248A94912CB401B8
:103CF0000E945827CB0147DE5C012D81F8013581F8
:103D00003203C0011124B4010E945827CB013BDECD
:103D10007C01C50136E0880F991F3A95E1F761E80B
:103D20007FEF0E945827605C7F4F6038710514F068
:103D30006FE770E0762F66278B010D67BE01685D27
:103D40007F4F26E04D2DCE018ADD2DE32E9DC00153
:103D50002F9D900D11246FE770E00E945827CB0132
:103D6000805C9F4FBE016E5D7F4F00E0182F23E007
:103D70004D2DCE0174DDA4CF9F92AF92BF92CF9212
:103D8000DF92EF92FF920F931F93CF93DF936C011B
:103D9000EB01FC01E1806D8182810E94FB1090DDCE
:103DA000A82EF601938197FD9F5F95958EE3F82EDF
:103DB000F90EF60144812FEF3FE3429FC001439F7C
:103DC000900D11246FEF70E00E9444278B01000FCB
:103DD000111F00271F776F777727062B172B8581F9
:103DE00096818233910510F482E390E00E94CF1017
:103DF000982EB92EF6018281898783818E8324E0F3
:103E00004E2DBE016D5D7F4FCE0129DD0A2D27E0CD
:103E10004E2DBE01685D7F4FCE0140DD092D1B2D6B
:103E20002AE04E2DBE01645D7F4FCE0118DD0F2DBF
:103E3000F7FC00E0BE01625D7F4F2BE04E2DCE010E
:103E40002DDDDF91CF911F910F91FF90EF90DF90CB
:103E5000CF90BF90AF909F900895FC01DB018281CD
:103E600093811B969C938E931A9781813FCDFF92ED
:103E70000F931F93CF93DF93182FEB01842F042E02
:103E8000000C990BF12C47FF0AC09195819591097F
:103E90008038910514F08FE790E09FE7F92E6D814F
:103EA000880F0E94FB100CDD082FBE016A5D7F4F5A
:103EB00026E0412FCE01F2DCBE01665D7F4F0F2D63
:103EC00029E0412FCE01EADCDF91CF911F910F91C4
:103ED000FF9008959F92AF92BF92CF92DF92EF92A0
:103EE000FF920F931F93CF93DF93FC017B0191808F
:103EF0008281C82E082E000CDD089381A92E092E80
:103F0000000CBB08E601CA0DDB1DFB016581CA146C
:103F1000DB040CF03EC0981B892F0E94FB10D0DC04
:103F2000082FD7FD23969E01359527953595279522
:103F3000E901EE96D7FF02C0C0E0D0E027E0492DAE
:103F4000B701685D7F4FC701A9DC0C2F2BE0492D1D
:103F5000B701625D7F4FC701A1DC11E0AC14BD0465
:103F60000CF010E01295110F107EB7016D5D7F4FC0
:103F700000E024E0492DC70172DCDF91CF911F9151
:103F80000F91FF90EF90DF90CF90BF90AF909F90F8
:103F90000895891BC2CFEF92FF920F931F93CF9387
:103FA000DF937C01EB01FC0181858D83838582FF9A
:103FB00044C08485F0E88F9FC0011124865A9F4F2A
:103FC00064EB70E061D76F7769A38B819C8120E0FF
:103FD00030E08F3F9F4711F02B813C8189819A818E
:103FE00000E010E08F3F4FE7940761F02817390792
:103FF00038F4821B930B0E94CF108C01892B11F493
:1040000001E010E0F70182818B30E8F4883088F518
:104010008130E9F08250863080F5BE01675D7F4FC8
:1040200028E04181CE011BDC83E190E0DF91CF915C
:104030001F910F91FF90EF900895828160E481308D
:1040400019F660E2C1CF8B30B1F08C30B1F427E0CB
:10405000F7014181BE01695D7F4FCE0100DCF701B0
:104060008281813011F08FE0E0CFBE0181813EDCA2
:10407000FACF8EE0DACF87E0D8CF80E0D6CFDC0170
:10408000FB0180E2848F9FE7968F11A211968C919D
:1040900011978B30F8F48830C0F5813059F1825097
:1040A000863008F043C080E481A392A395A317A2B1
:1040B00016A290A793A78EE386A711968C918230C3
:1040C00071F414A213A28EE69EE192A781A795A790
:1040D00084A708958B3041F18C3061F0089580E021
:1040E00090E494A383A385E692E192A781A784E755
:1040F00093E0EDCF8FE782A383A315A214A286A33A
:1041000010A617A281A712A6089580E09DE793A3A9
:1041100082A39EE394A38FE385A396A387A38DE751
:1041200090E091A780A708958EE782A308959C014F
:1041300083B5816083BD309385002093840081E046
:1041400086BBB09BFECF08955E9A81EC9FEFEFDFB8
:104150005E9883E89FEFEBCF282F9091A90980917B
:10416000AA0998278091AB0998278091AC099827D4
:10417000203131F48091A7093091A809832798272D
:10418000892F82958F708927982F969596958927E4
:10419000982F969589272B3019F49091A809892793
:1041A000817008951DB880E48EB910BA83EF81BB89
:1041B00083E085BD95E090938100809369008BEC4E
:1041C00093EFB5DFC1DF8BEC93EFB1DF6EE780E0FB
:1041D0000E940309B9DF8091AE098091AE09813157
:1041E00059F480E1B9DF811539F083E08093460707
:1041F00080E00E94091011C08091AE098C3059F402
:104200008BE0AADF811539F084E08093460781E0D6
:104210000E94091002C0E898D5CFE898F894089554
:10422000CF9380914607CBE0843009F0C0E16C2F3A
:1042300080E00E940309E89881110CC08091470733
:104240008F5F809347078B30C0F0F89480E28093B3
:10425000D800FFCF109247078C2F7EDF811569F0C1
:1042600080914607843059F486E0E7EAF9E0AFE34D
:10427000B7E001900D928A95E1F7CF91089587EA12
:1042800099E0CF910C944908982F20910801282398
:1042900081E0291380E008959091080191FF16C0F4
:1042A0002091490730914A072115324078F4209136
:1042B000490730914A07A9014F5F5F4F50934A0762
:1042C00040934907255B384FF901808308950F9388
:1042D0001F93CF93DF938B0120910801EC01080F0E
:1042E000191F211118C0DF91CF911F910F910895CF
:1042F00080E2D2DFE991E295EF70F0E0E25CFD4F01
:104300008081CADFFE013197E081EF70F0E0E25C6E
:10431000FD4F8081C1DFC017D10751F7E4CF409135
:104320000801411521F0611511F07727D0CF0895CC
:104330001F93CF93DF9320910801211561F0EC01C9
:104340001991111541F01A3011F48DE0A5DF812F7C
:10435000A3DFCE01F4CFDF91CF911F91089520917B
:104360000801211529F0E4DF8DE096DF8AE094CF83
:1043700008951F93CF93DF9320910801211569F0D1
:10438000EC01FE011491111541F01A3011F48DE089
:1043900083DF812F81DF2196F4CFDF91CF911F91B1
:1043A000089520910801211529F0E3DF8DE074DFE5
:1043B0008AE072CF089540910801411541F06115DE
:1043C00011F0772784DF8DE067DF8AE065CF0895FD
:1043D000EF92FF920F931F93CF93DF930F92CDB77E
:1043E000DEB769838A01790120910801211549F01E
:1043F0009FDF61E070E0CE01019691DFB701C80157
:10440000DADF0F90DF91CF911F910F91FF90EF9026
:104410000895AF92BF92CF92DF92EF92FF920F93E7
:104420001F93CF93DF936B017A01890120910801DB
:10443000211579F19EDFE7010E0D1F1DC017D10771
:1044400070F08DE029DF8AE0DF91CF911F910F910D
:10445000FF90EF90DF90CF90BF90AF901DCF8881FD
:10446000F601E80FF11DE80FF11DB290A29061E096
:1044700070E0CE0154DF7501FF2482E0A81630F011
:10448000B70161507109CE01019649DFCE0DDF1DE4
:10449000D5CFDF91CF911F910F91FF90EF90DF90DB
:1044A000CF90BF90AF9008956091490770914A07EF
:1044B00061157105D9F010924A0710924907809151
:1044C0004807811599F083E08093E90040E050E0CF
:1044D0008BE497E0F2D18091E8008E778093E8003A
:1044E00058D08091E8008E778093E8000895982F47
:1044F000973020F08093E90081E008959093E900DF
:10450000242F762F50E0981731F07091EC00209115
:10451000ED005091F00021FD02C09F5FE9CF309186
:10452000EB003E7F3093EB003091ED003D7F309308
:10453000ED003091EB0031603093EB007093EC00B4
:104540002093ED005093F0002091EE0027FDE5CF81
:1045500080E0089580914F0987FF13C08091E800A3
:1045600082FF06C08091E8008B778093E800089571
:1045700080914E098111F2CF089580914E098115E5
:10458000D9F38091E80080FFF8CF8091E8008E7722
:10459000ECCF2091E4003091E50095E6A90120914F
:1045A000EC00822F817020FF06C08091E80080FF20
:1045B00006C080E008952091E80022FD1AC0809195
:1045C0004E09811589F0853089F08091EB0085FDD9
:1045D0000FC02091E4003091E50042175307F9F233
:1045E0009A95E1F684E0089582E0089583E00895C5
:1045F00081E008950F931F93CF93DF9346D04DD062
:10460000C8EDD0E088818F7788838881806888832F
:1046100088818F7D888319BC10924E0910924D09B4
:1046200010924B0910924C0900EE10E0F8018081C5
:104630008B7F808388818160888342E060E080E0B6
:1046400056DFE1EEF0E080818E7F8083E2EEF0E0E5
:10465000808181608083808188608083F80180818F
:104660008E7F8083888180618883DF91CF911F91C5
:104670000F910895E7EDF0E080818160808384E010
:1046800082BF81E080935709B5CFE8EDF0E08081EB
:104690008E7F80831092E20008951092DA001092CB
:1046A000E10008951F920F920FB60F9211242F93DD
:1046B0003F934F935F936F937F938F939F93AF93AA
:1046C000BF93EF93FF938091E10082FF0AC0809136
:1046D000E20082FF06C08091E1008B7F8093E100C1
:1046E000C0D38091DA0080FF19C08091D80080FF8C
:1046F00015C08091DA008E7F8093DA008091D90016
:1047000080FF8BC080E189BD82E189BD09B400FED4
:10471000FDCF81E080934E090E94AF0B8091E100B4
:1047200080FF18C08091E20080FF14C08091E200F9
:104730008E7F8093E2008091E20080618093E200AE
:104740008091D80080628093D80019BC85E0809366
:104750004E0987D38091E10084FF28C08091E20058
:1047600084FF24C080E189BD82E189BD09B400FED7
:10477000FDCF8091D8008F7D8093D8008091E1009B
:104780008F7E8093E1008091E2008F7E8093E20033
:104790008091E20081608093E20080914D09811553
:1047A00009F441C084E080934E095BD38091E1001D
:1047B00083FF22C08091E20083FF1EC08091E10050
:1047C000877F8093E10082E080934E0910924D092B
:1047D0008091E1008E7F8093E1008091E2008E7FE6
:1047E0008093E2008091E20080618093E20042E0E9
:1047F00060E080E07CDE35D3FF91EF91BF91AF9117
:104800009F918F917F916F915F914F913F912F91E8
:104810000F900FBE0F901F90189519BC10924E0963
:104820000E94B10B7BCF8091E30087FDBBCF81E07D
:10483000BACFCF92DF92EF92FF920F931F93CF9355
:104840008C017B01A6DEC82F811121C0E114F10487
:1048500029F0F70180819181081B190BC12CD12C03
:1048600001151105A1F08091E80085FD1EC0809121
:10487000E8008B778093E800E114F10489F0F701F8
:10488000808191818C0D9D1D91838083C5E08C2F4B
:10489000CF911F910F91FF90EF90DF90CF900895EF
:1048A00078DE811501F3C82FF2CF8091F10001501D
:1048B0001109FFEFCF1ADF0AD3CFAF92BF92CF9289
:1048C000DF92EF92FF920F931F93CF936C018B01B6
:1048D0007A015FDEC82F811124C0E114F10439F0A0
:1048E000F70180819181081B190BC80ED91EA12CDC
:1048F000B12C01151105A9F08091E80085FD21C0BA
:104900008091E8008E778093E800ACD2E114F10446
:1049100099F0F701808191818A0D9B1D918380839D
:10492000C5E08C2FCF911F910F91FF90EF90DF90FA
:10493000CF90BF90AF9008952CDE8115E9F2C82F7B
:10494000F0CFF60181916F018093F10001501109C0
:10495000FFEFAF1ABF0ACDCFAF92BF92CF92DF92D7
:10496000EF92FF920F931F93CF936C018B017A010B
:1049700010DEC82F811124C0E114F10439F0F701D1
:1049800080819181081B190BC80ED91EA12CB12C56
:1049900001151105A9F08091E80085FD21C08091E5
:1049A000E8008B778093E8005DD2E114F10499F080
:1049B000F701808191818A0D9B1D91838083C5E0E1
:1049C0008C2FCF911F910F91FF90EF90DF90CF90A0
:1049D000BF90AF900895DDDD8115E9F2C82FF0CFCB
:1049E0008091F100F60181936F0101501109FFEFF1
:1049F000AF1ABF0ACDCFFC019B0180915509909160
:104A000056098617970718F0672B61F0C90140E037
:104A1000009771F441110CC08091E80082FF35C00D
:104A200080E008958091E8008E778093E800EECFD3
:104A300020914E09211599F1253069F12091E80066
:104A400023FD2BC02091E80022FDE6CF2091E80055
:104A500020FFDECF3091F3002091F200009719F093
:104A60002830310558F041E02830310509F040E0A8
:104A70002091E8002E772093E800CACF419140931F
:104A8000F10001972F5F3F4FE9CF80914E098115CB
:104A900031F0853009F683E0089581E0089582E0E1
:104AA0000895FC019B01672B59F58091E8008B77F5
:104AB0008093E8008091E80080FF28C080E008959E
:104AC000853011F483E008958091E80083FD25C0CE
:104AD0008091E80082FF14C09091F3008091F20071
:104AE000892B31F08091F100819321503040A1F762
:104AF0008091E8008B778093E80021153105D1F291
:104B000080914E098111DCCF82E0089580914E0999
:104B10008115D1F3853071F6D5CF81E00895FC0180
:104B20009B0180915509909156098617970718F0B7
:104B3000672B61F0C90140E0009771F441110CC08E
:104B40008091E80082FF36C080E008958091E800FF
:104B50008E778093E800EECF20914E092115A9F1C0
:104B6000253079F12091E80023FD2DC02091E80047
:104B700022FDE6CF2091E80020FFDECF3091F30048
:104B80002091F200009719F02830310558F041E0EB
:104B90002830310509F040E02091E8002E7720937D
:104BA000E800CACF44914093F100319601972F5FFE
:104BB0003F4FE8CF80914E09811539F0853009F0DB
:104BC000BFCF83E0089581E0089582E008950F93B8
:104BD0001F93CF93DF93CDB7DEB7AA970FB6F894A4
:104BE000DEBF0FBECDBF8FE499E0FC01019620919E
:104BF000F100208329E087359207B9F70E94E70B7F
:104C00008091E80083FF35C080914F099091500951
:104C10009A3078F5E92FF0E0E352F84D78C180380A
:104C200079F0823831F5809153098F708093E900D3
:104C30008091EB0085FB882780F91092E90006C07F
:104C400080914B09880F90914C09892B9091E80035
:104C5000977F9093E8008093F1001092F10080918B
:104C6000E8008E772AC081111DC0809151098130E2
:104C700041F18091E80083FF0AC08091EB008062DF
:104C80008093EB008091E800877F8093E800AA96EC
:104C90000FB6F894DEBF0FBECDBFDF91CF911F914D
:104CA0000F910895823029F780915109811581F083
:104CB0001092E9008091E800877F8093E8004ADC49
:104CC000D8CF81E0933009F080E080934B09F0CF9A
:104CD000809153098F70811561F28093E9002091D2
:104CE000EB0020FFE5CF933031F48091EB00806240
:104CF0008093EB00DDCF9091EB0090619093EB00FF
:104D000021E030E0A90102C0440F551F8A95E2F767
:104D10004093EA001092EA008091EB008860E8CFAF
:104D20008111A7CF109151091F770FB7F894809187
:104D3000E800877F8093E8000DDC8091E80080FF29
:104D4000FCCF8091E3008078812B8093E300806822
:104D50008093E30083E0111101C082E080934E094B
:104D60000FBF87CF8058823008F083CF80915109E0
:104D7000909152098C3D53E0950791F583E08A8329
:104D80008AE289834FB7F894DE01139620E03EE073
:104D900051E2E32FF0E050935700849120FF03C0CD
:104DA00082958F703F5F8F708A30C0F0895C90E091
:104DB0008D939D932F5F243161F74FBF8091E80061
:104DC000877F8093E8006AE270E0CE01019613DEEF
:104DD0008091E8008B778093E8004BCF805DE7CF30
:104DE000AE014F5F5F4F609153090E94DF0A8C0153
:104DF000892B09F43ECF8091E800877F8093E800FB
:104E0000B80189819A818BDEE3CF803809F031CFF8
:104E10008091E800877F8093E80080914D0980931E
:104E2000F1001DCF811125CF90915109923008F0EA
:104E300020CF8091E800877F8093E80090934D0910
:104E400089DB80914D09811531F084E080934E0912
:104E50000E94B30B0ECF8091E30087FDF6CF81E077
:104E6000F5CF0895CF9380914E09811559F0C091E7
:104E7000E900CF701092E9008091E80083FDA7DE81
:104E8000C093E900CF910895AA1BBB1B51E107C055
:104E9000AA1FBB1FA617B70710F0A61BB70B881FCA
:104EA000991F5A95A9F780959095BC01CD01089559
:104EB00097FB072E16F4009406D077FD08D0E4DFA8
:104EC00007FC05D03EF4909581959F4F089570950D
:104ED00061957F4F0895052E97FB16F400940FD02F
:104EE00057FD05D02FD007FC02D046F408C05095DE
:104EF0004095309521953F4F4F4F5F4F08959095C6
:104F00008095709561957F4F8F4F9F4F0895EE0F5D
:104F1000FF1F0590F491E02D0994A29FB001B39F6B
:104F2000C001A39F700D811D1124911DB29F700DB2
:104F3000811D1124911D0895F0DFB7FF0895821B94
:104F4000930B0895A1E21A2EAA1BBB1BFD010DC0F5
:104F5000AA1FBB1FEE1FFF1FA217B307E407F50729
:104F600020F0A21BB30BE40BF50B661F771F881F05
:104F7000991F1A9469F760957095809590959B019B
:104F8000AC01BD01CF010895FB01DC0102C001901D
:104F90000D9241505040D8F70895F894FFCF1D1559
:104FA000211531153F154D155B1569156C151F152C
:104FB0006F157215751578157B150F263326392652
:0E4FC000332639269026B226392605271227D9
:104FCE00000000000000080202FF0E0008000900A9
:104FDE000700040004000F0003000000040002009C
:104FEE00020002000500A2163C1770161C174B1685
:104FFE00421758176E17A917AC17971BB2176418DC
:10500E0038190A1A6A1ACC1A021D6C1D761D4B1D10
:10501E00DD1C721D741D8C1D8E1D911D3F20971D54
:10502E002C1EBC1E2D1F6A1FCB1FB57C7FA57F00BB
:10503E00C506F000010A0110056BF7B5407FA57299
:10504E0057B5447FA53C43B5487FA57E00B54C7F40
:10505E00A50400B5507FA50200B5547FA50200B58A
:10506E00587FA5007EB55C7FA53C00B5607FA5147A
:10507E0065B5647FA57E6BB5687FA53600B56C7F80
:10508E00A52800B5707FA5664CB5747FA57E01F08E
:10509E0000010A01020306010504F10E4301007D21
:1050AE00F17E04013E4EF11C45013E2FF10B4601EF
:1050BE007D00F11040007F00F36AF000010A152E0A
:1050CE003F6A1D4859040201004765745265706FAE
:1050DE007274005365745265706F7274005573620A
:1050EE00203C3D0012060502080A0B0D0E0F1001A2
:1050FE00000605030204050508090A0B06003031F7
:10510E003233343536373839414243444546000050
:00000001FF
